:020000040000FA
:100000000C945E000C9486000C9486000C94860080
:100010000C9486000C9486000C9486000C94BD020F
:100020000C9486000C9486000C9486000C94860038
:100030000C9486000C9486000C9486000C94860028
:100040000C9471030C9486000C943F030C941903D8
:100050000C9486000C9486000C9486000C94860008
:100060000C9486000C9486000000000024002700F9
:100070002A0000000008000201000003040700003D
:1000800000000000000000000000250028002B00F8
:10009000020404040404040404020202020202032F
:1000A000030303030301020408102040800102043B
:1000B00008102001020408102000BB0311241FBEF9
:1000C000CFEFD8E0DEBFCDBF11E0A0E0B1E0ECEEB5
:1000D000FBE002C005900D92AE38B107D9F722E0DF
:1000E000AEE8B1E001C01D92A835B207E1F710E01B
:1000F000CEE5D0E004C02197FE010E94EE05CD358B
:10010000D107C9F70E9407040C94F4050C94000071
:10011000AF92BF92CF92DF92EF92FF920F931F9315
:10012000CF93DF936C017B018B01040F151FEB0153
:100130005E01AE18BF08C017D10759F06991D6010A
:10014000ED91FC910190F081E02DC6010995892B7C
:1001500079F7C501DF91CF911F910F91FF90EF903B
:10016000DF90CF90BF90AF900895FC01538D448DE8
:10017000252F30E0842F90E0821B930B541710F052
:10018000CF96089501970895FC01918D828D98175F
:1001900061F0A28DAE0FBF2FB11D5D968C91928D37
:1001A0009F5F9F73928F90E008958FEF9FEF089568
:1001B000FC01918D828D981731F0828DE80FF11D31
:1001C000858D90E008958FEF9FEF0895FC01918D4C
:1001D000228D892F90E0805C9F4F821B91098F7345
:1001E0009927089588EA91E00E94E60021E0892B92
:1001F00009F420E0822F089580E090E0892B29F017
:100200000E94F20081110C9400000895FC01A48D5D
:10021000A80FB92FB11DA35ABF4F2C91848D90E028
:1002200001968F739927848FA689B7892C93A0890B
:10023000B1898C91837080648C93938D848D981395
:1002400006C00288F389E02D80818F7D8083089528
:10025000EF92FF920F931F93CF93DF93EC0181E016
:10026000888F9B8D8C8D98131AC0E889F9898081BD
:1002700085FF15C09FB7F894EE89FF896083E889F0
:10028000F98980818370806480839FBF81E090E0E2
:10029000DF91CF911F910F91FF90EF900895F62E6F
:1002A0000B8D10E00F5F1F4F0F731127E02E8C8D09
:1002B0008E110CC00FB607FCFACFE889F98980814E
:1002C00085FFF5CFCE010E940601F1CFEB8DEC0F3B
:1002D000FD2FF11DE35AFF4FF0829FB7F8940B8F6B
:1002E000EA89FB8980818062CFCFCF93DF93EC01D5
:1002F000888D8823B9F0AA89BB89E889F9898C910E
:1003000085FD03C0808186FD0DC00FB607FCF7CFC9
:100310008C9185FFF2CF808185FFEDCFCE010E94C9
:100320000601E9CFDF91CF91089590E0FC01EE58EE
:10033000FF4F2491FC01EB55FF4F3491FC01EF5628
:10034000FF4FE491EE23C9F0222339F0233001F16D
:10035000A8F4213019F1223029F1F0E0EE0FFF1F4F
:10036000EA57FF4FA591B4918FB7F894EC916111C2
:1003700026C030953E233C938FBF08952730A9F0C7
:100380002830C9F0243049F7809180008F7D03C068
:10039000809180008F7780938000DFCF84B58F7746
:1003A00084BDDBCF84B58F7DFBCF8091B0008F778C
:1003B0008093B000D2CF8091B0008F7DF9CF3E2BDB
:1003C000DACF9091000189130BC0E0E9F0E0E491ED
:1003D0009FEF90930001E13049F028F0E23061F0A6
:1003E00060E00C94950110926E00FACF90916F002E
:1003F0009D7F90936F00F4CF909170009D7F9093BC
:10040000700091E09093B0009091B100987F94605B
:100410009093B1001092B300E3CFCF93DF9390E0BD
:10042000FC01EB55FF4F24918F569F4FFC018491A7
:100430008823C9F090E0880F991FFC01E859FF4F0D
:10044000A591B491FC01EA57FF4FC591D491611178
:100450000DC09FB7F8948C91209582238C9388814E
:10046000282328839FBFDF91CF910895623051F4F4
:100470009FB7F8943C91822F809583238C93E881D9
:100480002E2BEFCF8FB7F894EC912E2B2C938FBFA0
:10049000EACF3FB7F89480918F0190919001A0919D
:1004A0009101B091920126B5A89B05C02F3F19F08C
:1004B0000196A11DB11D3FBFBA2FA92F982F8827E4
:1004C000BC01CD01620F711D811D911D42E0660FBF
:1004D000771F881F991F4A95D1F708958F929F9291
:1004E000AF92BF92CF92DF92EF92FF924B015C01ED
:1004F0000E9449026B017C010E9449026C197D092E
:100500008E099F09683E734081059105A8F321E09B
:10051000821A9108A108B10888EEC80E83E0D81E9F
:10052000E11CF11C81149104A104B10429F7FF908E
:10053000EF90DF90CF90BF90AF909F908F900895F5
:10054000CF93DF93FC0101900020E9F73197AF01D1
:10055000481B590BBC0188EA91E00E948800EC011D
:1005600042E050E063E171E088EA91E00E94880097
:100570008C0F9D1FDF91CF9108951F920F920FB6A0
:100580000F9211242F933F934F935F936F937F9319
:100590008F939F93AF93BF93EF93FF9380919C01B1
:1005A00090919D01A0919E01B0919F01892B8A2B72
:1005B0008B2BD1F190919701E0919801F0919901E5
:1005C00080818927808380919C0190919D01A091D9
:1005D0009E01B0919F01181619061A061B069CF47D
:1005E00080919C0190919D01A0919E01B0919F01ED
:1005F0000197A109B10980939C0190939D01A0935B
:100600009E01B0939F01FF91EF91BF91AF919F9198
:100610008F917F916F915F914F913F912F910F90AB
:100620000FBE0F901F901895809100010E94E1016C
:10063000EACF1F920F920FB60F9211242F933F9380
:100640004F935F936F937F938F939F93AF93BF93DA
:10065000EF93FF9388EA91E00E940601FF91EF91EA
:10066000BF91AF919F918F917F916F915F914F91CA
:100670003F912F910F900FBE0F901F9018951F92D2
:100680000F920FB60F9211242F938F939F93EF9396
:10069000FF93E091B801F091B9018081E091BE0132
:1006A000F091BF0182FD1BC090818091C1018F5FDD
:1006B0008F732091C201821741F0E091C101F0E0F7
:1006C000E855FE4F958F8093C101FF91EF919F9167
:1006D0008F912F910F900FBE0F901F9018958081D2
:1006E000F4CF1F920F920FB60F9211242F933F93C6
:1006F0008F939F93AF93BF938091930190919401B7
:10070000A0919501B091960130918E0123E0230FC5
:100710002D3758F50196A11DB11D20938E018093B0
:10072000930190939401A0939501B09396018091C9
:100730008F0190919001A0919101B0919201019649
:10074000A11DB11D80938F0190939001A093910101
:10075000B0939201BF91AF919F918F913F912F9153
:100760000F900FBE0F901F90189526E8230F02964A
:10077000A11DB11DD2CFE8EAF1E01382128288EE0A
:1007800093E0A0E0B0E084839583A683B78385E0FF
:1007900091E09183808385EC90E09587848784EC59
:1007A00090E09787868780EC90E0918B808B81EC3E
:1007B00090E0938B828B82EC90E0958B848B86EC1F
:1007C00090E0978B868B118E128E138E148EA5E47B
:1007D000B2E08BE015968C93159716968C9316972E
:1007E000E0EBF0E0E4911796EC931797ECE9F0E07A
:1007F000E4911896EC93189740E85EE360E070E0AF
:100800001D964D935D936D937C93509708957894C6
:1008100084B5826084BD84B5816084BD85B5826005
:1008200085BD85B5816085BD80916E0081608093B6
:100830006E0010928100809181008260809381001F
:10084000809181008160809381008091800081602F
:10085000809380008091B10084608093B10080918A
:10086000B00081608093B00080917A0084608093B2
:100870007A0080917A00826080937A0080917A0079
:10088000816080937A0080917A00806880937A00FA
:100890001092C10060E08EE00E940D0260E08FE0E7
:1008A0000E940D0261E087E00E940D0261E085E098
:1008B0000E940D0261E086E00E940D02E091B80105
:1008C000F091B90182E08083E091B401F091B5012B
:1008D0001082E091B601F091B7018FEC8083109205
:1008E000C001E091BC01F091BD0186E08083E09100
:1008F000BA01F091BB01808180618083E091BA01EF
:10090000F091BB01808188608083E091BA01F09111
:10091000BB01808180688083E091BA01F091BB01C6
:1009200080818F7D808386E191E00E94A00268EE45
:1009300073E080E090E00E946E0262E080914A02E3
:100940000E940D022FB7F894809193019091940129
:10095000A0919501B09196012FBF805D9740A109AC
:10096000B10980934E0290934F02A0935002B0932E
:10097000510287E3809357024FE3C42E4FE1D42EF8
:1009800050E9E52E50E0F52E68E9462E60E0562E3F
:100990000CEA10E088248A94982C540130E0632EED
:1009A00030E0732E83E491E00E94A00261E085E0D4
:1009B0000E94950164EF71E080E090E00E946E0279
:1009C00080E591E00E94A00261E086E00E9495012E
:1009D00064EF71E080E090E00E946E028DE591E0AE
:1009E0000E94A00280910001873029F5F701C4918F
:1009F000C7FDBDC061E087E00E940D02CC2309F471
:100A000088C0C23009F099C08091B100887F8360AE
:100A10008093B10089EF8093B30080929C01909203
:100A20009D01A0929E01B0929F0180917000826012
:100A3000809370009CC08F3F09F099C087E080933D
:100A40000001F701C491CF3F09F491C0C13019F101
:100A500050F0C23009F43CC0C7FD89C061E087E0B6
:100A60000E940D02CECF14BC15BC84B5826084BD3B
:100A700085B5816085BDF2018491E82FF0E0EE0F2D
:100A8000FF1FEA57FF4F85919491F801849180935D
:100A90009B01C0E0AFCF1092800010928100809146
:100AA00081008860809381008091810081608093C3
:100AB0008100F2018491E82FF0E0EE0FFF1FEA576A
:100AC000FF4F85919491F801849180939A0192CF80
:100AD0001092B0001092B1008091B00082608093BB
:100AE000B0008091B10081608093B100F2018491E7
:100AF000E82FF0E0EE0FFF1FEA57FF4F859194912A
:100B00009093990180939801F801849180939701C3
:100B100071CF85B5887F836085BD8CE787BD809266
:100B2000A4019092A501A092A601B092A701809184
:100B30006E00826080936E001AC0C13009F046C01A
:100B400080918100887F816080938100D0928900AC
:100B5000C09288008092A0019092A101A092A2016F
:100B6000B092A30180916F00826080936F0087E64E
:100B700091E00E94A00260E085E00E94950164EF90
:100B800071E080E090E00E946E0285E791E00E94B3
:100B9000A00260E086E00E94950164EF71E080E0D1
:100BA00090E00E946E0283E891E00E94A00287E03C
:100BB0000E94E1016114710409F4F4CE0E94F20074
:100BC000882309F4EFCE0E940000E8CEC23021F065
:100BD000C111CDCF8FE3A2CF8FE31DCFEE0FFF1F4B
:100BE0000590F491E02D0994F894FFCFFF000000E8
:100BF0000028018800B5007501E600C400D8000D8A
:100C00000A0057656C636F6D6521205765617468D4
:100C100065722041776172652053797374656D2028
:100C20006973205374617274696E672E2E2E0042B0
:100C3000756C622031206973206F6E0042756C62A2
:100C40002032206973206F6E0042757A7A657220B7
:100C50006F6E0042756C622031206973206F66668A
:100C60000042756C622032206973206F6666004214
:0A0C7000757A7A6572206F666600DF
:107E0000112484B714BE81FFF0D085E080938100F7
:107E100082E08093C00088E18093C10086E0809377
:107E2000C20080E18093C4008EE0C9D0259A86E02C
:107E300020E33CEF91E0309385002093840096BBD3
:107E4000B09BFECF1D9AA8958150A9F7CC24DD24C4
:107E500088248394B5E0AB2EA1E19A2EF3E0BF2EE7
:107E6000A2D0813461F49FD0082FAFD0023811F036
:107E7000013811F484E001C083E08DD089C08234E0
:107E800011F484E103C0853419F485E0A6D080C0E4
:107E9000853579F488D0E82EFF2485D0082F10E0AE
:107EA000102F00270E291F29000F111F8ED06801E7
:107EB0006FC0863521F484E090D080E0DECF843638
:107EC00009F040C070D06FD0082F6DD080E0C81688
:107ED00080E7D80618F4F601B7BEE895C0E0D1E017
:107EE00062D089930C17E1F7F0E0CF16F0E7DF06D8
:107EF00018F0F601B7BEE89568D007B600FCFDCFD4
:107F0000A601A0E0B1E02C9130E011968C91119780
:107F100090E0982F8827822B932B1296FA010C0160
:107F200087BEE89511244E5F5F4FF1E0A038BF0790
:107F300051F7F601A7BEE89507B600FCFDCF97BE46
:107F4000E89526C08437B1F42ED02DD0F82E2BD052
:107F50003CD0F601EF2C8F010F5F1F4F84911BD097
:107F6000EA94F801C1F70894C11CD11CFA94CF0C13
:107F7000D11C0EC0853739F428D08EE10CD085E9AC
:107F80000AD08FE07ACF813511F488E018D01DD067
:107F900080E101D065CF982F8091C00085FFFCCF94
:107FA0009093C60008958091C00087FFFCCF809118
:107FB000C00084FD01C0A8958091C6000895E0E648
:107FC000F0E098E1908380830895EDDF803219F02E
:107FD00088E0F5DFFFCF84E1DECF1F93182FE3DFCA
:107FE0001150E9F7F2DF1F91089580E0E8DFEE27F6
:047FF000FF270994CA
:027FFE00040479
:00000001FF
