:100000000C945D000C9485000C9485000C94850084
:100010000C9485000C9485000C9485000C9485004C
:100020000C9485000C9485000C9485000C9485003C
:100030000C9485000C9485000C9485000C9485002C
:100040000C9459020C9485000C9427020C94010224
:100050000C9485000C9485000C9485000C9485000C
:100060000C9485000C9485000000000024002700FB
:100070002A0000000000250028002B0004040404CE
:100080000404040402020202020203030303030342
:10009000010204081020408001020408102001021F
:1000A00004081020000000080002010000030407FB
:1000B00000000000000000000C0411241FBECFEF60
:1000C000D8E0DEBFCDBF11E0A0E0B1E0E6ECF8E0A3
:1000D00002C005900D92A631B107D9F721E0A6E143
:1000E000B1E001C01D92AE3BB207E1F710E0CDE5F3
:1000F000D0E004C02197FE010E945B04CC35D107FB
:10010000C9F70E94A3020C9461040C940000E8EA71
:10011000F0E02491E4E9F0E09491E0E8F0E0E4918B
:10012000EE23C9F0222339F0233001F1A8F4213065
:1001300019F1223029F1F0E0EE0FFF1FEE58FF4FCA
:10014000A591B4912FB7F894EC91811126C09095A8
:100150009E239C932FBF08952730A9F02830C9F023
:10016000243049F7209180002F7D03C0209180002A
:100170002F7720938000DFCF24B52F7724BDDBCFEE
:1001800024B52F7DFBCF2091B0002F772093B000B6
:10019000D2CF2091B0002F7DF9CF9E2BDACFAF9236
:1001A000BF92CF92DF92EF92FF920F931F93CF9364
:1001B000DF936C017B018B01040F151FEB015E01C6
:1001C000AE18BF08C017D10759F06991D601ED915B
:1001D000FC910190F081E02DC6010995892B79F7FA
:1001E000C501DF91CF911F910F91FF90EF90DF90AC
:1001F000CF90BF90AF900895FC01538D448D252F73
:1002000030E0842F90E0821B930B541710F0CF96B0
:10021000089501970895FC01918D828D981761F0E2
:10022000A28DAE0FBF2FB11D5D968C91928D9F5FF9
:100230009F73928F90E008958FEF9FEF0895FC01D8
:10024000918D828D981731F0828DE80FF11D858D8B
:1002500090E008958FEF9FEF0895FC01918D228D1E
:10026000892F90E0805C9F4F821B91098F739927A3
:1002700008958FE191E00E942D0121E0892B09F47E
:1002800020E0822F089580E090E0892B29F00E94E1
:10029000390181110C9400000895FC01A48DA80F70
:1002A000B92FB11DA35ABF4F2C91848D90E00196B8
:1002B0008F739927848FA689B7892C93A089B189D8
:1002C0008C91837080648C93938D848D981306C079
:1002D0000288F389E02D80818F7D80830895EF92DD
:1002E000FF920F931F93CF93DF93EC0181E0888FF0
:1002F0009B8D8C8D98131AC0E889F989808185FFC0
:1003000015C09FB7F894EE89FF896083E889F98961
:1003100080818370806480839FBF81E090E0DF9163
:10032000CF911F910F91FF90EF900895F62E0B8DB6
:1003300010E00F5F1F4F0F731127E02E8C8D8E1171
:100340000CC00FB607FCFACFE889F989808185FFD8
:10035000F5CFCE010E944D01F1CFEB8DEC0FFD2FBB
:10036000F11DE35AFF4FF0829FB7F8940B8FEA8993
:10037000FB8980818062CFCFCF93DF93EC01888DA2
:100380008823B9F0AA89BB89E889F9898C9185FD10
:1003900003C0808186FD0DC00FB607FCF7CF8C919E
:1003A00085FFF2CF808185FFEDCFCE010E944D0108
:1003B000E9CFDF91CF9108953FB7F89480911B0169
:1003C00090911C01A0911D01B0911E0126B5A89B22
:1003D00005C02F3F19F00196A11DB11D3FBFBA2FD7
:1003E000A92F982F8827BC01CD01620F711D811D97
:1003F000911D42E0660F771F881F991F4A95D1F71C
:1004000008951F920F920FB60F9211242F933F93CE
:100410004F935F936F937F938F939F93AF93BF930C
:10042000EF93FF938FE191E00E944D01FF91EF91D7
:10043000BF91AF919F918F917F916F915F914F91FC
:100440003F912F910F900FBE0F901F9018951F9204
:100450000F920FB60F9211242F938F939F93EF93C8
:10046000FF93E0912F01F09130018081E0913501FF
:10047000F091360182FD1BC09081809138018F5F21
:100480008F7320913901821741F0E0913801F0E03B
:10049000E15EFE4F958F80933801FF91EF919F9120
:1004A0008F912F910F900FBE0F901F901895808104
:1004B000F4CF1F920F920FB60F9211242F933F93F8
:1004C0008F939F93AF93BF938091170190911801E1
:1004D000A0911901B0911A013091160123E0230F68
:1004E0002D3758F50196A11DB11D2093160180935B
:1004F000170190931801A0931901B0931A018091EC
:100500001B0190911C01A0911D01B0911E0101964B
:10051000A11DB11D80931B0190931C01A0931D018F
:10052000B0931E01BF91AF919F918F913F912F91F9
:100530000F900FBE0F901F90189526E8230F02967C
:10054000A11DB11DD2CFCF93DF93CDB7DEB7A19759
:100550000FB6F894DEBF0FBECDBF789484B582602D
:1005600084BD84B5816084BD85B5826085BD85B557
:10057000816085BD80916E00816080936E001092D5
:100580008100809181008260809381008091810050
:1005900081608093810080918000816080938000E1
:1005A0008091B10084608093B1008091B00081603F
:1005B0008093B00080917A00846080937A0080916B
:1005C0007A00826080937A0080917A0081608093C3
:1005D0007A0080917A00806880937A001092C1003E
:1005E000E0912F01F091300182E08083E0912B01B6
:1005F000F0912C011082E0912D01F0912E018FECF1
:10060000808310923701E0913301F091340186E04C
:100610008083E0913101F09132018081806180839B
:10062000E0913101F0913201808188608083E09116
:100630003101F0913201808180688083E091310145
:10064000F091320180818F7D8083EEE9F0E024918A
:10065000EAE8F0E084918823C9F090E0880F991FC0
:10066000FC01E859FF4F45915491FC01EE58FF4FB2
:10067000A591B4919FB7F894FA01808120958223C7
:1006800080838C91E22FE823EC939FBFE4E9F0E0B4
:100690002491E0E8F0E08491882399F090E0880FBD
:1006A000991FFC01E859FF4FA591B491FC01EE5848
:1006B000FF4F859194918FB7F894EC91E22BEC93D6
:1006C0008FBF90E4392E2AE0822E912CA12CB12CE0
:1006D00000E010E030927C0080917A00806480938A
:1006E0007A0080917A0086FDFCCFC0907800D0908F
:1006F0007900D092BD01C092BC010D2C000CEE0817
:10070000FF08F7FE71C06DE28FE191E00E946F017A
:1007100022273327A9012C193D094E095F0919A287
:10072000CE0181967C01CA01B901A50194010E9404
:100730003904605DF70162937F01211531054105A0
:10074000510589F7E114F10461F001900020E9F707
:100750003197AF014E195F09B7018FE191E00E9417
:10076000CF0042E050E062E171E08FE191E00E9451
:10077000CF000E94DC016B017C0184EF482E5524E0
:100780005394612C712C0E94DC016C197D098E0937
:100790009F09683E734081059105A8F3F1E04F1A67
:1007A00051086108710828EEC20E23E0D21EE11C38
:1007B000F11C411451046104710429F78091BC01BA
:1007C0009091BD01853F91402CF181E00E9487000E
:1007D0000115110509F47ECF0E943901882309F41F
:1007E00079CF0E94000076CFA701960119A2CE0111
:1007F00081967C01CA01B901A50194010E943904C6
:10080000605DF70162937F012115310541055105B6
:1008100089F798CF80E0DACFEFE1F1E0138212821E
:1008200088EE93E0A0E0B0E084839583A683B7834D
:1008300084E091E09183808385EC90E095878487C4
:1008400084EC90E09787868780EC90E0918B808B9A
:1008500081EC90E0938B828B82EC90E0958B848B83
:1008600086EC90E0978B868B118E128E138E148EF1
:100870000895A1E21A2EAA1BBB1BFD010DC0AA1FE1
:10088000BB1FEE1FFF1FA217B307E407F50720F0F9
:10089000A21BB30BE40BF50B661F771F881F991F74
:1008A0001A9469F760957095809590959B01AC01BD
:1008B000BD01CF010895EE0FFF1F0590F491E02DCB
:0608C0000994F894FFCF3B
:1008C600000000006F01CF00FC00BC012D010B01F0
:0608D6001F010D0A0000E5
:00000001FF
