:100000000C945D000C947A000C947A000C947A00A5
:100010000C947A000C947A000C947A000C946E0183
:100020000C947A000C947A000C947A000C947A0068
:100030000C947A000C947A000C947A000C947A0058
:100040000C94CA010C947A000C947A000C947A00F7
:100050000C947A000C947A000C947A000C947A0038
:100060000C947A000C947A00000000080002010051
:100070000003040700000000000000000200000070
:1000800000250028002B0000000000240027002A83
:100090000004040404040404040202020202020331
:1000A000030303030301020408102040800102043B
:1000B0000810200102040810200011241FBECFEFF9
:1000C000D8E0DEBFCDBF11E0A0E0B1E0EAEAF6E0A3
:1000D00002C005900D92A230B107D9F721E0A2E04D
:1000E000B1E001C01D92AC31B207E1F70E941402E9
:1000F0000C9453030C94000090E0FC01EB55FF4F6F
:1001000024918F569F4FFC018491882399F090E0B1
:10011000880F991FFC01E957FF4FA591B491FC018D
:10012000E358FF4F859194918FB7F894EC91E22BAF
:10013000EC938FBF089590E0FC01E859FF4F2491A4
:10014000FC01EB55FF4F3491FC01EF56FF4FE4915A
:10015000EE23C9F0222339F0233001F1A8F4213035
:1001600019F1223029F1F0E0EE0FFF1FE358FF4FA5
:10017000A591B4918FB7F894EC91611126C0309598
:100180003E233C938FBF08952730A9F02830C9F053
:10019000243049F7809180008F7D03C080918000DA
:1001A0008F7780938000DFCF84B58F7784BDDBCFDE
:1001B00084B58F7DFBCF8091B0008F778093B000A6
:1001C000D2CF8091B0008F7DF9CF3E2BDACF9091C6
:1001D000000189130BC0ECE7F0E0E4919FEF9093EE
:1001E0000001E13049F028F0E23061F060E00C9469
:1001F0009B0010926E00FACF90916F009D7F9093BC
:100200006F00F4CF909170009D7F9093700091E00B
:100210009093B0009091B100987F94609093B1005A
:100220001092B300E3CF3FB7F8948091070190910B
:100230000801A0910901B0910A0126B5A89B05C04B
:100240002F3F19F00196A11DB11D3FBFBA2FA92F55
:10025000982F8827BC01CD01620F711D811D911D52
:1002600042E0660F771F881F991F4A95D1F70895BE
:100270008F929F92AF92BF92CF92DF92EF92FF92B6
:100280000E9413014B015C0188EEC82E83E0D82E3A
:10029000E12CF12C0E941301681979098A099B0944
:1002A000683E734081059105A8F321E0C21AD10888
:1002B000E108F10888EE880E83E0981EA11CB11CAD
:1002C000C114D104E104F10429F7FF90EF90DF900D
:1002D000CF90BF90AF909F908F9008951F920F92F4
:1002E0000FB60F9211242F933F934F935F936F9309
:1002F0007F938F939F93AF93BF93EF93FF938091DF
:10030000100190911101A0911201B0911301892B5C
:100310008A2B8B2BD1F190910B01E0910C01F09184
:100320000D018081892780838091100190911101B6
:10033000A0911201B0911301181619061A061B0696
:100340009CF48091100190911101A0911201B09143
:1003500013010197A109B109809310019093110134
:10036000A0931201B0931301FF91EF91BF91AF9150
:100370009F918F917F916F915F914F913F912F91BD
:100380000F900FBE0F901F901895809100010E9452
:10039000E700EACF1F920F920FB60F9211242F930E
:1003A0003F938F939F93AF93BF938091030190915D
:1003B0000401A0910501B09106013091020123E0F2
:1003C000230F2D3758F50196A11DB11D2093020171
:1003D0008093030190930401A0930501B09306015B
:1003E0008091070190910801A0910901B0910A0143
:1003F0000196A11DB11D8093070190930801A09360
:100400000901B0930A01BF91AF919F918F913F91E4
:100410002F910F900FBE0F901F90189526E8230F75
:100420000296A11DB11DD2CF789484B5826084BD9F
:1004300084B5816084BD85B5826085BD85B58160E8
:1004400085BD80916E00816080936E001092810066
:100450008091810082608093810080918100816021
:1004600080938100809180008160809380008091E2
:10047000B10084608093B1008091B000816080936E
:10048000B00080917A00846080937A0080917A0035
:10049000826080937A0080917A00816080937A00F4
:1004A00080917A00806880937A001092C10088E081
:1004B0000E947C0086E00E947C003FE3C32E3FE167
:1004C000D32E4CE7E42E40E0F42E59E9452E50E0BF
:1004D000552E0DEA10E060E0662E60E0762E88244E
:1004E0008A94982C540180910001883021F5F701FD
:1004F000C491C7FDBAC088E00E947C00CC2309F4F7
:1005000087C0C23009F098C08091B100887F8360B5
:100510008093B10089EF8093B30080921001909294
:100520001101A0921201B0921301809170008260BB
:10053000809370009AC08F3F09F097C088E0809345
:100540000001F701C491CF3F09F48FC0C13011F110
:1005500048F0C23009F43BC0C7FD87C088E00E9464
:100560007C00CFCF14BC15BC84B5826084BD85B53A
:10057000816085BDF2018491E82FF0E0EE0FFF1F4E
:10058000E358FF4F85919491F801849180930F0176
:10059000C0E0B1CF10928000109281008091810064
:1005A00088608093810080918100816080938100C8
:1005B000F2018491E82FF0E0EE0FFF1FE358FF4FA8
:1005C00085919491F801849180930E0194CF1092BB
:1005D000B0001092B1008091B00082608093B000B2
:1005E0008091B10081608093B100F2018491E82F85
:1005F000F0E0EE0FFF1FE358FF4F85919491909329
:100600000D0180930C01F801849180930B0173CF4D
:1006100085B5887F836085BD8CE787BD8092180192
:1006200090921901A0921A01B0921B0180916E0064
:10063000826080936E0019C0C13069F5809181009D
:10064000887F816080938100D0928900C092880069
:100650008092140190921501A0921601B092170198
:1006600080916F00826080936F0061E086E00E945D
:100670009B000E94380188E00E94E70060E086E06D
:100680000E949B000E9438016114710409F42BCF71
:100690000E94000028CFC23021F0C111E6CF8FE3C5
:0A06A000BCCF8FE338CFF894FFCFF2
:0206AA00FF004F
:00000001FF
